{
  "_format": "hh-sol-artifact-1",
  "contractName": "CourseMarketplace",
  "sourceName": "contracts/EduChain.sol",
  "abi": [
    {
      "inputs": [
        {
          "internalType": "uint256",
          "name": "_platformFeePercent",
          "type": "uint256"
        }
      ],
      "stateMutability": "nonpayable",
      "type": "constructor"
    },
    {
      "anonymous": false,
      "inputs": [
        {
          "indexed": false,
          "internalType": "uint256",
          "name": "courseId",
          "type": "uint256"
        },
        {
          "indexed": false,
          "internalType": "uint256",
          "name": "moduleCount",
          "type": "uint256"
        }
      ],
      "name": "CourseContentUpdated",
      "type": "event"
    },
    {
      "anonymous": false,
      "inputs": [
        {
          "indexed": false,
          "internalType": "uint256",
          "name": "courseId",
          "type": "uint256"
        },
        {
          "indexed": false,
          "internalType": "string",
          "name": "title",
          "type": "string"
        },
        {
          "indexed": false,
          "internalType": "address",
          "name": "creator",
          "type": "address"
        },
        {
          "indexed": false,
          "internalType": "uint256",
          "name": "price",
          "type": "uint256"
        }
      ],
      "name": "CourseCreated",
      "type": "event"
    },
    {
      "anonymous": false,
      "inputs": [
        {
          "indexed": false,
          "internalType": "uint256",
          "name": "courseId",
          "type": "uint256"
        }
      ],
      "name": "CourseDelisted",
      "type": "event"
    },
    {
      "anonymous": false,
      "inputs": [
        {
          "indexed": false,
          "internalType": "uint256",
          "name": "courseId",
          "type": "uint256"
        },
        {
          "indexed": false,
          "internalType": "address",
          "name": "buyer",
          "type": "address"
        },
        {
          "indexed": false,
          "internalType": "uint256",
          "name": "price",
          "type": "uint256"
        }
      ],
      "name": "CoursePurchased",
      "type": "event"
    },
    {
      "anonymous": false,
      "inputs": [
        {
          "indexed": false,
          "internalType": "uint256",
          "name": "courseId",
          "type": "uint256"
        },
        {
          "indexed": false,
          "internalType": "string",
          "name": "title",
          "type": "string"
        },
        {
          "indexed": false,
          "internalType": "uint256",
          "name": "price",
          "type": "uint256"
        },
        {
          "indexed": false,
          "internalType": "bool",
          "name": "isActive",
          "type": "bool"
        }
      ],
      "name": "CourseUpdated",
      "type": "event"
    },
    {
      "anonymous": false,
      "inputs": [
        {
          "indexed": false,
          "internalType": "address",
          "name": "creator",
          "type": "address"
        },
        {
          "indexed": false,
          "internalType": "uint256",
          "name": "amount",
          "type": "uint256"
        }
      ],
      "name": "CreatorWithdrawal",
      "type": "event"
    },
    {
      "anonymous": false,
      "inputs": [
        {
          "indexed": false,
          "internalType": "uint256",
          "name": "courseId",
          "type": "uint256"
        },
        {
          "indexed": false,
          "internalType": "uint256",
          "name": "moduleIndex",
          "type": "uint256"
        },
        {
          "indexed": false,
          "internalType": "uint256",
          "name": "materialIndex",
          "type": "uint256"
        }
      ],
      "name": "MaterialAdded",
      "type": "event"
    },
    {
      "anonymous": false,
      "inputs": [
        {
          "indexed": false,
          "internalType": "uint256",
          "name": "courseId",
          "type": "uint256"
        },
        {
          "indexed": false,
          "internalType": "uint256",
          "name": "moduleIndex",
          "type": "uint256"
        },
        {
          "indexed": false,
          "internalType": "string",
          "name": "moduleTitle",
          "type": "string"
        }
      ],
      "name": "ModuleAdded",
      "type": "event"
    },
    {
      "anonymous": false,
      "inputs": [
        {
          "indexed": false,
          "internalType": "uint256",
          "name": "courseId",
          "type": "uint256"
        },
        {
          "indexed": false,
          "internalType": "address",
          "name": "buyer",
          "type": "address"
        },
        {
          "indexed": false,
          "internalType": "uint256",
          "name": "amount",
          "type": "uint256"
        }
      ],
      "name": "RefundProcessed",
      "type": "event"
    },
    {
      "anonymous": false,
      "inputs": [
        {
          "indexed": false,
          "internalType": "uint256",
          "name": "courseId",
          "type": "uint256"
        },
        {
          "indexed": false,
          "internalType": "address",
          "name": "buyer",
          "type": "address"
        }
      ],
      "name": "RefundRequested",
      "type": "event"
    },
    {
      "inputs": [
        {
          "internalType": "uint256",
          "name": "_courseId",
          "type": "uint256"
        },
        {
          "internalType": "uint256",
          "name": "_moduleIndex",
          "type": "uint256"
        },
        {
          "internalType": "string",
          "name": "_materialIpfsHash",
          "type": "string"
        }
      ],
      "name": "addMaterial",
      "outputs": [],
      "stateMutability": "nonpayable",
      "type": "function"
    },
    {
      "inputs": [
        {
          "internalType": "uint256",
          "name": "_courseId",
          "type": "uint256"
        },
        {
          "internalType": "string",
          "name": "_moduleTitle",
          "type": "string"
        },
        {
          "internalType": "string",
          "name": "_moduleIpfsHash",
          "type": "string"
        }
      ],
      "name": "addModule",
      "outputs": [],
      "stateMutability": "nonpayable",
      "type": "function"
    },
    {
      "inputs": [
        {
          "internalType": "uint256",
          "name": "_newFeePercent",
          "type": "uint256"
        }
      ],
      "name": "changePlatformFee",
      "outputs": [],
      "stateMutability": "nonpayable",
      "type": "function"
    },
    {
      "inputs": [],
      "name": "courseCounter",
      "outputs": [
        {
          "internalType": "uint256",
          "name": "",
          "type": "uint256"
        }
      ],
      "stateMutability": "view",
      "type": "function"
    },
    {
      "inputs": [
        {
          "internalType": "uint256",
          "name": "",
          "type": "uint256"
        }
      ],
      "name": "courses",
      "outputs": [
        {
          "internalType": "uint256",
          "name": "id",
          "type": "uint256"
        },
        {
          "internalType": "string",
          "name": "title",
          "type": "string"
        },
        {
          "internalType": "string",
          "name": "description",
          "type": "string"
        },
        {
          "internalType": "string",
          "name": "thumbnailIpfsHash",
          "type": "string"
        },
        {
          "internalType": "address",
          "name": "creator",
          "type": "address"
        },
        {
          "internalType": "uint256",
          "name": "price",
          "type": "uint256"
        },
        {
          "internalType": "bool",
          "name": "isActive",
          "type": "bool"
        },
        {
          "internalType": "uint256",
          "name": "totalSales",
          "type": "uint256"
        },
        {
          "internalType": "uint256",
          "name": "totalRevenue",
          "type": "uint256"
        },
        {
          "internalType": "uint256",
          "name": "moduleCount",
          "type": "uint256"
        },
        {
          "internalType": "uint256",
          "name": "enrolledUsers",
          "type": "uint256"
        },
        {
          "internalType": "uint256",
          "name": "duration",
          "type": "uint256"
        }
      ],
      "stateMutability": "view",
      "type": "function"
    },
    {
      "inputs": [
        {
          "internalType": "string",
          "name": "_title",
          "type": "string"
        },
        {
          "internalType": "string",
          "name": "_description",
          "type": "string"
        },
        {
          "internalType": "string",
          "name": "_thumbnailIpfsHash",
          "type": "string"
        },
        {
          "internalType": "string",
          "name": "_introVideoIpfsHash",
          "type": "string"
        },
        {
          "internalType": "uint256",
          "name": "_duration",
          "type": "uint256"
        },
        {
          "internalType": "uint256",
          "name": "_price",
          "type": "uint256"
        }
      ],
      "name": "createCourse",
      "outputs": [],
      "stateMutability": "nonpayable",
      "type": "function"
    },
    {
      "inputs": [
        {
          "internalType": "address",
          "name": "",
          "type": "address"
        }
      ],
      "name": "creatorBalance",
      "outputs": [
        {
          "internalType": "uint256",
          "name": "",
          "type": "uint256"
        }
      ],
      "stateMutability": "view",
      "type": "function"
    },
    {
      "inputs": [
        {
          "internalType": "address",
          "name": "",
          "type": "address"
        },
        {
          "internalType": "uint256",
          "name": "",
          "type": "uint256"
        }
      ],
      "name": "creatorCourseIds",
      "outputs": [
        {
          "internalType": "uint256",
          "name": "",
          "type": "uint256"
        }
      ],
      "stateMutability": "view",
      "type": "function"
    },
    {
      "inputs": [],
      "name": "creatorWithdraw",
      "outputs": [],
      "stateMutability": "nonpayable",
      "type": "function"
    },
    {
      "inputs": [
        {
          "internalType": "uint256",
          "name": "_courseId",
          "type": "uint256"
        }
      ],
      "name": "delistCourse",
      "outputs": [],
      "stateMutability": "nonpayable",
      "type": "function"
    },
    {
      "inputs": [
        {
          "internalType": "uint256",
          "name": "_courseId",
          "type": "uint256"
        }
      ],
      "name": "getCourseInfo",
      "outputs": [
        {
          "internalType": "uint256",
          "name": "id",
          "type": "uint256"
        },
        {
          "internalType": "string",
          "name": "title",
          "type": "string"
        },
        {
          "internalType": "string",
          "name": "description",
          "type": "string"
        },
        {
          "internalType": "string",
          "name": "thumbnailIpfsHash",
          "type": "string"
        },
        {
          "internalType": "address",
          "name": "creator",
          "type": "address"
        },
        {
          "internalType": "uint256",
          "name": "price",
          "type": "uint256"
        },
        {
          "internalType": "bool",
          "name": "isActive",
          "type": "bool"
        },
        {
          "internalType": "uint256",
          "name": "totalSales",
          "type": "uint256"
        },
        {
          "internalType": "uint256",
          "name": "moduleCount",
          "type": "uint256"
        },
        {
          "internalType": "uint256",
          "name": "enrolledUsers",
          "type": "uint256"
        },
        {
          "internalType": "uint256",
          "name": "duration",
          "type": "uint256"
        }
      ],
      "stateMutability": "view",
      "type": "function"
    },
    {
      "inputs": [
        {
          "internalType": "uint256",
          "name": "_courseId",
          "type": "uint256"
        }
      ],
      "name": "getCourseIntroVideo",
      "outputs": [
        {
          "internalType": "string",
          "name": "",
          "type": "string"
        }
      ],
      "stateMutability": "view",
      "type": "function"
    },
    {
      "inputs": [
        {
          "internalType": "address",
          "name": "_creator",
          "type": "address"
        }
      ],
      "name": "getCreatorCourseCount",
      "outputs": [
        {
          "internalType": "uint256",
          "name": "",
          "type": "uint256"
        }
      ],
      "stateMutability": "view",
      "type": "function"
    },
    {
      "inputs": [
        {
          "internalType": "uint256",
          "name": "_courseId",
          "type": "uint256"
        },
        {
          "internalType": "uint256",
          "name": "_materialIndex",
          "type": "uint256"
        }
      ],
      "name": "getMaterial",
      "outputs": [
        {
          "internalType": "string",
          "name": "",
          "type": "string"
        }
      ],
      "stateMutability": "view",
      "type": "function"
    },
    {
      "inputs": [
        {
          "internalType": "uint256",
          "name": "_courseId",
          "type": "uint256"
        }
      ],
      "name": "getModuleTitles",
      "outputs": [
        {
          "internalType": "string[]",
          "name": "",
          "type": "string[]"
        }
      ],
      "stateMutability": "view",
      "type": "function"
    },
    {
      "inputs": [
        {
          "internalType": "uint256",
          "name": "_courseId",
          "type": "uint256"
        },
        {
          "internalType": "uint256",
          "name": "_moduleIndex",
          "type": "uint256"
        }
      ],
      "name": "getModuleVideo",
      "outputs": [
        {
          "internalType": "string",
          "name": "",
          "type": "string"
        }
      ],
      "stateMutability": "view",
      "type": "function"
    },
    {
      "inputs": [
        {
          "internalType": "address",
          "name": "_user",
          "type": "address"
        }
      ],
      "name": "getUserCourseCount",
      "outputs": [
        {
          "internalType": "uint256",
          "name": "",
          "type": "uint256"
        }
      ],
      "stateMutability": "view",
      "type": "function"
    },
    {
      "inputs": [
        {
          "internalType": "address",
          "name": "_user",
          "type": "address"
        },
        {
          "internalType": "uint256",
          "name": "_courseId",
          "type": "uint256"
        }
      ],
      "name": "hasUserPurchasedCourse",
      "outputs": [
        {
          "internalType": "bool",
          "name": "",
          "type": "bool"
        }
      ],
      "stateMutability": "view",
      "type": "function"
    },
    {
      "inputs": [],
      "name": "owner",
      "outputs": [
        {
          "internalType": "address",
          "name": "",
          "type": "address"
        }
      ],
      "stateMutability": "view",
      "type": "function"
    },
    {
      "inputs": [],
      "name": "ownerWithdraw",
      "outputs": [],
      "stateMutability": "nonpayable",
      "type": "function"
    },
    {
      "inputs": [],
      "name": "platformFeePercent",
      "outputs": [
        {
          "internalType": "uint256",
          "name": "",
          "type": "uint256"
        }
      ],
      "stateMutability": "view",
      "type": "function"
    },
    {
      "inputs": [
        {
          "internalType": "uint256",
          "name": "_courseId",
          "type": "uint256"
        },
        {
          "internalType": "address",
          "name": "_buyer",
          "type": "address"
        }
      ],
      "name": "processRefund",
      "outputs": [],
      "stateMutability": "nonpayable",
      "type": "function"
    },
    {
      "inputs": [
        {
          "internalType": "uint256",
          "name": "_courseId",
          "type": "uint256"
        }
      ],
      "name": "purchaseCourse",
      "outputs": [],
      "stateMutability": "payable",
      "type": "function"
    },
    {
      "inputs": [
        {
          "internalType": "uint256",
          "name": "_courseId",
          "type": "uint256"
        }
      ],
      "name": "requestRefund",
      "outputs": [],
      "stateMutability": "nonpayable",
      "type": "function"
    },
    {
      "inputs": [
        {
          "internalType": "uint256",
          "name": "_courseId",
          "type": "uint256"
        },
        {
          "internalType": "string",
          "name": "_title",
          "type": "string"
        },
        {
          "internalType": "string",
          "name": "_description",
          "type": "string"
        },
        {
          "internalType": "string",
          "name": "_thumbnailIpfsHash",
          "type": "string"
        },
        {
          "internalType": "string",
          "name": "_introVideoIpfsHash",
          "type": "string"
        },
        {
          "internalType": "uint256",
          "name": "_price",
          "type": "uint256"
        },
        {
          "internalType": "bool",
          "name": "_isActive",
          "type": "bool"
        }
      ],
      "name": "updateCourse",
      "outputs": [],
      "stateMutability": "nonpayable",
      "type": "function"
    },
    {
      "inputs": [
        {
          "internalType": "uint256",
          "name": "_courseId",
          "type": "uint256"
        },
        {
          "internalType": "uint256",
          "name": "_moduleIndex",
          "type": "uint256"
        },
        {
          "internalType": "string",
          "name": "_moduleTitle",
          "type": "string"
        },
        {
          "internalType": "string",
          "name": "_moduleIpfsHash",
          "type": "string"
        }
      ],
      "name": "updateModule",
      "outputs": [],
      "stateMutability": "nonpayable",
      "type": "function"
    },
    {
      "inputs": [
        {
          "internalType": "address",
          "name": "",
          "type": "address"
        },
        {
          "internalType": "uint256",
          "name": "",
          "type": "uint256"
        }
      ],
      "name": "userCourseIds",
      "outputs": [
        {
          "internalType": "uint256",
          "name": "",
          "type": "uint256"
        }
      ],
      "stateMutability": "view",
      "type": "function"
    },
    {
      "inputs": [
        {
          "internalType": "address",
          "name": "",
          "type": "address"
        },
        {
          "internalType": "uint256",
          "name": "",
          "type": "uint256"
        }
      ],
      "name": "userPurchases",
      "outputs": [
        {
          "internalType": "uint256",
          "name": "courseId",
          "type": "uint256"
        },
        {
          "internalType": "uint256",
          "name": "purchaseDate",
          "type": "uint256"
        },
        {
          "internalType": "bool",
          "name": "refundRequested",
          "type": "bool"
        },
        {
          "internalType": "bool",
          "name": "refunded",
          "type": "bool"
        }
      ],
      "stateMutability": "view",
      "type": "function"
    }
  ],
  "bytecode": "0x60806040523480156200001157600080fd5b5060405162002f9f38038062002f9f833981016040819052620000349162000052565b600080546001600160a01b031916331781556001556002556200006c565b6000602082840312156200006557600080fd5b5051919050565b612f23806200007c6000396000f3fe6080604052600436106101b75760003560e01c806396f979d2116100ec578063cd1319381161008a578063d7a5791a11610064578063d7a5791a14610580578063e6cd7ab6146105a0578063edf7342b146105cd578063fa1ba3b01461060357600080fd5b8063cd131938146104d2578063cf08ca63146104e5578063cf2c03341461050557600080fd5b8063a4b2409e116100c6578063a4b2409e14610445578063a51c67c614610465578063cbb01c4c14610485578063cc8d89a3146104b257600080fd5b806396f979d2146103b6578063981059ee146103ee578063a0e758611461042557600080fd5b8063598bfeb71161015957806382216fbd1161013357806382216fbd146103325780638c639a85146103485780638da5cb5b1461035e5780639165ce361461039657600080fd5b8063598bfeb7146102dd57806364ec8bdb146102fd578063716bdb0d1461031257600080fd5b80634311de8f116101955780634311de8f146102445780634b9e76a7146102595780635631576a1461027957806356874eb11461029957600080fd5b80630acea7fc146101bc5780631a0d6535146101f257806342e4671914610214575b600080fd5b3480156101c857600080fd5b506101dc6101d736600461249d565b610623565b6040516101e99190612505565b60405180910390f35b3480156101fe57600080fd5b5061021261020d3660046125bb565b6107ba565b005b34801561022057600080fd5b5061023461022f366004612696565b6109d0565b60405190151581526020016101e9565b34801561025057600080fd5b50610212610a3a565b34801561026557600080fd5b506102126102743660046126c0565b610b3e565b34801561028557600080fd5b506102126102943660046126ec565b610e6b565b3480156102a557600080fd5b506102cf6102b436600461273c565b6001600160a01b031660009081526007602052604090205490565b6040519081526020016101e9565b3480156102e957600080fd5b506102126102f8366004612757565b610fff565b34801561030957600080fd5b506102126110c1565b34801561031e57600080fd5b506101dc61032d36600461249d565b61118f565b34801561033e57600080fd5b506102cf60015481565b34801561035457600080fd5b506102cf60025481565b34801561036a57600080fd5b5060005461037e906001600160a01b031681565b6040516001600160a01b0390911681526020016101e9565b3480156103a257600080fd5b506102cf6103b1366004612696565b6112b5565b3480156103c257600080fd5b506103d66103d1366004612757565b6112e6565b6040516101e99c9b9a99989796959493929190612770565b3480156103fa57600080fd5b5061040e610409366004612757565b6114e8565b6040516101e99b9a99989796959493929190612801565b34801561043157600080fd5b50610212610440366004612889565b61175f565b34801561045157600080fd5b50610212610460366004612757565b611939565b34801561047157600080fd5b506101dc610480366004612757565b611b09565b34801561049157600080fd5b506104a56104a0366004612757565b611bda565b6040516101e99190612900565b3480156104be57600080fd5b506102126104cd366004612972565b611cef565b6102126104e0366004612757565b611eea565b3480156104f157600080fd5b506102cf610500366004612696565b612204565b34801561051157600080fd5b50610558610520366004612696565b600560209081526000928352604080842090915290825290208054600182015460029092015490919060ff8082169161010090041684565b60408051948552602085019390935290151591830191909152151560608201526080016101e9565b34801561058c57600080fd5b5061021261059b366004612757565b612220565b3480156105ac57600080fd5b506102cf6105bb36600461273c565b60086020526000908152604090205481565b3480156105d957600080fd5b506102cf6105e836600461273c565b6001600160a01b031660009081526006602052604090205490565b34801561060f57600080fd5b5061021261061e366004612a43565b612298565b60608260008111801561063857506001548111155b61065d5760405162461bcd60e51b815260040161065490612aa6565b60405180910390fd5b3360009081526005602090815260408083208784529091529020600101548490158015906106ae5750336000908152600560209081526040808320848452909152902060020154610100900460ff16155b6106ca5760405162461bcd60e51b815260040161065490612ad5565b60008581526003602052604090206009015484106106fa5760405162461bcd60e51b815260040161065490612b17565b600085815260046020526040902060010180548590811061071d5761071d612b4e565b90600052602060002001805461073290612b64565b80601f016020809104026020016040519081016040528092919081815260200182805461075e90612b64565b80156107ab5780601f10610780576101008083540402835291602001916107ab565b820191906000526020600020905b81548152906001019060200180831161078e57829003601f168201915b50505050509250505092915050565b60008651116108035760405162461bcd60e51b81526020600482015260156024820152745469746c652063616e6e6f7420626520656d70747960581b6044820152606401610654565b60008451116108245760405162461bcd60e51b815260040161065490612b98565b60008351116108455760405162461bcd60e51b815260040161065490612bdb565b600081116108955760405162461bcd60e51b815260206004820152601f60248201527f5072696365206d7573742062652067726561746572207468616e207a65726f006044820152606401610654565b600180549060006108a583612c36565b90915550506001805460008181526003602052604090209081559081016108cc8882612c9e565b50600281016108db8782612c9e565b50600381016108ea8682612c9e565b50600480820180546001600160a01b031916331790556005820183905560068201805460ff191660019081179091556000600784018190556008840181905560098401819055600a8401819055600b84018690559054815260209190915260409020806109578682612c9e565b50600060048201819055338082526007602090815260408084206001805482548083018455928752939095200191909155915491517f48ecb80c764507d9b513e5fbdba76e8b8177d246e4314b2718204d1027f99673926109be9290918c91908890612d5e565b60405180910390a15050505050505050565b6001600160a01b038216600090815260056020908152604080832084845290915281206001015415801590610a3157506001600160a01b0383166000908152600560209081526040808320858452909152902060020154610100900460ff16155b90505b92915050565b6000546001600160a01b03163314610a645760405162461bcd60e51b815260040161065490612d93565b4760015b6001548111610ab7576000818152600360209081526040808320600401546001600160a01b031683526008909152902054610aa39083612dd4565b915080610aaf81612c36565b915050610a68565b5060008111610b015760405162461bcd60e51b81526020600482015260166024820152754e6f2062616c616e636520746f20776974686472617760501b6044820152606401610654565b600080546040516001600160a01b039091169183156108fc02918491818181858888f19350505050158015610b3a573d6000803e3d6000fd5b5050565b6000546001600160a01b03163314610b685760405162461bcd60e51b815260040161065490612d93565b81600081118015610b7b57506001548111155b610b975760405162461bcd60e51b815260040161065490612aa6565b6001600160a01b038216600090815260056020908152604080832086845290915290206001810154610c025760405162461bcd60e51b815260206004820152601460248201527310dbdd5c9cd9481b9bdd081c1d5c98da185cd95960621b6044820152606401610654565b600281015460ff16610c4c5760405162461bcd60e51b8152602060048201526013602482015272139bc81c99599d5b99081c995c5d595cdd1959606a1b6044820152606401610654565b6002810154610100900460ff1615610c995760405162461bcd60e51b815260206004820152601060248201526f105b1c9958591e481c99599d5b99195960821b6044820152606401610654565b60008481526003602052604081206002546005820154919291606491610cbe91612de7565b610cc89190612dfe565b90506000818360050154610cdc9190612dd4565b60048401546001600160a01b0316600090815260086020526040902054909150811115610d4b5760405162461bcd60e51b815260206004820152601c60248201527f496e73756666696369656e742063726561746f722062616c616e6365000000006044820152606401610654565b60048301546001600160a01b031660009081526008602052604081208054839290610d77908490612dd4565b909155505060028401805461ff001916610100179055600783018054906000610d9f83612e20565b91905055508260050154836008016000828254610dbc9190612dd4565b9091555050600a83018054906000610dd383612e20565b909155505060058301546040516001600160a01b0388169180156108fc02916000818181858888f19350505050158015610e11573d6000803e3d6000fd5b506005830154604080518981526001600160a01b0389166020820152908101919091527f79ff6a60b3e21b3630b207e2a7b0b50b69b197d3d7ca776108ed2afb8fbac8dc906060015b60405180910390a150505050505050565b82600081118015610e7e57506001548111155b610e9a5760405162461bcd60e51b815260040161065490612aa6565b60008481526003602052604090206004015484906001600160a01b03163314610ed55760405162461bcd60e51b815260040161065490612e37565b6000858152600360205260409020600901548410610f055760405162461bcd60e51b815260040161065490612b17565b6000835111610f615760405162461bcd60e51b815260206004820152602260248201527f4d6174657269616c204950465320686173682063616e6e6f7420626520656d70604482015261747960f01b6064820152608401610654565b600085815260046020818152604080842092830154845260038301909152909120610f8c8582612c9e565b50600481018054906000610f9f83612c36565b91905055507f98eb1700b6a89371c18542b3fd629ae567977677a9006f4e187ad014e69ca742868660018460040154610fd89190612dd4565b604080519384526020840192909252908201526060015b60405180910390a1505050505050565b8060008111801561101257506001548111155b61102e5760405162461bcd60e51b815260040161065490612aa6565b60008281526003602052604090206004015482906001600160a01b031633146110695760405162461bcd60e51b815260040161065490612e37565b60008381526003602052604090819020600601805460ff19169055517f2808e4e54ef7d74542a34491d0678c27da2c5006cae2f1d6a70adbf0f35e1e71906110b49085815260200190565b60405180910390a1505050565b33600090815260086020526040902054806111175760405162461bcd60e51b81526020600482015260166024820152754e6f2062616c616e636520746f20776974686472617760501b6044820152606401610654565b336000818152600860205260408082208290555183156108fc0291849190818181858888f19350505050158015611152573d6000803e3d6000fd5b5060408051338152602081018390527f0d53b74a6cb6d1fbd9dc6dc1d7714036c7c6a3f48350103a7011041eb32a4c5e910160405180910390a150565b6060826000811180156111a457506001548111155b6111c05760405162461bcd60e51b815260040161065490612aa6565b3360009081526005602090815260408083208784529091529020600101548490158015906112115750336000908152600560209081526040808320848452909152902060020154610100900460ff16155b61122d5760405162461bcd60e51b815260040161065490612ad5565b60008581526004602081905260409091200154841061128e5760405162461bcd60e51b815260206004820152601c60248201527f4d6174657269616c20696e646578206f7574206f6620626f756e6473000000006044820152606401610654565b60008581526004602090815260408083208784526003019091529020805461073290612b64565b600660205281600052604060002081815481106112d157600080fd5b90600052602060002001600091509150505481565b6003602052600090815260409020805460018201805491929161130890612b64565b80601f016020809104026020016040519081016040528092919081815260200182805461133490612b64565b80156113815780601f1061135657610100808354040283529160200191611381565b820191906000526020600020905b81548152906001019060200180831161136457829003601f168201915b50505050509080600201805461139690612b64565b80601f01602080910402602001604051908101604052809291908181526020018280546113c290612b64565b801561140f5780601f106113e45761010080835404028352916020019161140f565b820191906000526020600020905b8154815290600101906020018083116113f257829003601f168201915b50505050509080600301805461142490612b64565b80601f016020809104026020016040519081016040528092919081815260200182805461145090612b64565b801561149d5780601f106114725761010080835404028352916020019161149d565b820191906000526020600020905b81548152906001019060200180831161148057829003601f168201915b505050600484015460058501546006860154600787015460088801546009890154600a8a0154600b909a015498996001600160a01b039096169894975060ff9093169550909390928c565b6000606080606060008060008060008060008b60008111801561150d57506001548111155b6115295760405162461bcd60e51b815260040161065490612aa6565b6000600360008f8152602001908152602001600020905080600001548160010182600201836003018460040160009054906101000a90046001600160a01b031685600501548660060160009054906101000a900460ff168760070154886009015489600a01548a600b01548980546115a090612b64565b80601f01602080910402602001604051908101604052809291908181526020018280546115cc90612b64565b80156116195780601f106115ee57610100808354040283529160200191611619565b820191906000526020600020905b8154815290600101906020018083116115fc57829003601f168201915b5050505050995088805461162c90612b64565b80601f016020809104026020016040519081016040528092919081815260200182805461165890612b64565b80156116a55780601f1061167a576101008083540402835291602001916116a5565b820191906000526020600020905b81548152906001019060200180831161168857829003601f168201915b505050505098508780546116b890612b64565b80601f01602080910402602001604051908101604052809291908181526020018280546116e490612b64565b80156117315780601f1061170657610100808354040283529160200191611731565b820191906000526020600020905b81548152906001019060200180831161171457829003601f168201915b505050505097509c509c509c509c509c509c509c509c509c509c509c50505091939597999b90929496989a50565b8360008111801561177257506001548111155b61178e5760405162461bcd60e51b815260040161065490612aa6565b60008581526003602052604090206004015485906001600160a01b031633146117c95760405162461bcd60e51b815260040161065490612e37565b60008681526003602052604090206009015485106117f95760405162461bcd60e51b815260040161065490612b17565b600084511161184a5760405162461bcd60e51b815260206004820152601c60248201527f4d6f64756c65207469746c652063616e6e6f7420626520656d707479000000006044820152606401610654565b600083511161189b5760405162461bcd60e51b815260206004820181905260248201527f4d6f64756c65204950465320686173682063616e6e6f7420626520656d7074796044820152606401610654565b6000868152600460205260409020600281018054869190889081106118c2576118c2612b4e565b9060005260206000200190816118d89190612c9e565b50838160010187815481106118ef576118ef612b4e565b9060005260206000200190816119059190612c9e565b507fc4f3ef40e8cf31adb37cfeddf4e080e505332c588893acb1c97e81c583bafd79878787604051610e5a93929190612e81565b8060008111801561194c57506001548111155b6119685760405162461bcd60e51b815260040161065490612aa6565b336000908152600560209081526040808320858452909152902060018101546119ca5760405162461bcd60e51b815260206004820152601460248201527310dbdd5c9cd9481b9bdd081c1d5c98da185cd95960621b6044820152606401610654565b600281015460ff1615611a1f5760405162461bcd60e51b815260206004820152601860248201527f526566756e6420616c72656164792072657175657374656400000000000000006044820152606401610654565b6002810154610100900460ff1615611a6c5760405162461bcd60e51b815260206004820152601060248201526f105b1c9958591e481c99599d5b99195960821b6044820152606401610654565b6001810154611a7e9062278d00612ea9565b421115611ac55760405162461bcd60e51b81526020600482015260156024820152741499599d5b99081c195c9a5bd908195e1c1a5c9959605a1b6044820152606401610654565b60028101805460ff19166001179055604080518481523360208201527fd8420f97dab0b820e066ebfad617848c1eab2d260922358cc1d5cdcdc568d57291016110b4565b606081600081118015611b1e57506001548111155b611b3a5760405162461bcd60e51b815260040161065490612aa6565b60008381526004602052604090208054611b5390612b64565b80601f0160208091040260200160405190810160405280929190818152602001828054611b7f90612b64565b8015611bcc5780601f10611ba157610100808354040283529160200191611bcc565b820191906000526020600020905b815481529060010190602001808311611baf57829003601f168201915b505050505091505b50919050565b606081600081118015611bef57506001548111155b611c0b5760405162461bcd60e51b815260040161065490612aa6565b600083815260046020908152604080832060020180548251818502810185019093528083529193909284015b82821015611ce3578382906000526020600020018054611c5690612b64565b80601f0160208091040260200160405190810160405280929190818152602001828054611c8290612b64565b8015611ccf5780601f10611ca457610100808354040283529160200191611ccf565b820191906000526020600020905b815481529060010190602001808311611cb257829003601f168201915b505050505081526020019060010190611c37565b50505050915050919050565b86600081118015611d0257506001548111155b611d1e5760405162461bcd60e51b815260040161065490612aa6565b60008881526003602052604090206004015488906001600160a01b03163314611d595760405162461bcd60e51b815260040161065490612e37565b6000885111611da25760405162461bcd60e51b81526020600482015260156024820152745469746c652063616e6e6f7420626520656d70747960581b6044820152606401610654565b6000865111611dc35760405162461bcd60e51b815260040161065490612b98565b6000855111611de45760405162461bcd60e51b815260040161065490612bdb565b60008411611e345760405162461bcd60e51b815260206004820152601f60248201527f5072696365206d7573742062652067726561746572207468616e207a65726f006044820152606401610654565b600089815260036020526040902060018101611e508a82612c9e565b5060028101611e5f8982612c9e565b5060038101611e6e8882612c9e565b506005810185905560068101805460ff191685151517905560008a815260046020526040902080611e9f8882612c9e565b507f2a862fb735381b2e519f2392b5deecb8239b129cc07879a1cce4f542c01cb59e8b8b8888604051611ed59493929190612ebc565b60405180910390a15050505050505050505050565b80600081118015611efd57506001548111155b611f195760405162461bcd60e51b815260040161065490612aa6565b600082815260036020526040902060060154829060ff16611f735760405162461bcd60e51b8152602060048201526014602482015273436f75727365206973206e6f742061637469766560601b6044820152606401610654565b60008381526003602052604090206005810154341015611fcc5760405162461bcd60e51b8152602060048201526014602482015273125b9cdd59999a58da595b9d081c185e5b595b9d60621b6044820152606401610654565b336000908152600560209081526040808320878452909152902060010154156120375760405162461bcd60e51b815260206004820152601860248201527f436f7572736520616c72656164792070757263686173656400000000000000006044820152606401610654565b60006064600254836005015461204d9190612de7565b6120579190612dfe565b9050600081836005015461206b9190612dd4565b600784018054919250600061207f83612c36565b9190505550826005015483600801600082825461209c9190612ea9565b9091555050600a830180549060006120b383612c36565b909155505060048301546001600160a01b0316600090815260086020526040812080548392906120e4908490612ea9565b9091555050604080516080810182528781524260208083019182526000838501818152606085018281523380845260058086528885208f86528652888520975188559551600188810191909155925160029097018054925115156101000261ff00199815159890981661ffff199093169290921796909617905593815260068252938420805493840181558452909220018790558301543411156121c157600583015433906108fc906121979034612dd4565b6040518115909202916000818181858888f193505050501580156121bf573d6000803e3d6000fd5b505b600583015460408051888152336020820152908101919091527f6d846848ed199e5a5cc3af1d2846d9e5aa7d59c948360982923973138cbc241b90606001610fef565b600760205281600052604060002081815481106112d157600080fd5b6000546001600160a01b0316331461224a5760405162461bcd60e51b815260040161065490612d93565b601e8111156122935760405162461bcd60e51b81526020600482015260156024820152744665652063616e6e6f74206578636565642033302560581b6044820152606401610654565b600255565b826000811180156122ab57506001548111155b6122c75760405162461bcd60e51b815260040161065490612aa6565b60008481526003602052604090206004015484906001600160a01b031633146123025760405162461bcd60e51b815260040161065490612e37565b60008451116123535760405162461bcd60e51b815260206004820152601c60248201527f4d6f64756c65207469746c652063616e6e6f7420626520656d707479000000006044820152606401610654565b60008351116123a45760405162461bcd60e51b815260206004820181905260248201527f4d6f64756c65204950465320686173682063616e6e6f7420626520656d7074796044820152606401610654565b600085815260036020908152604080832060048352908320600180820180549182018155855292909320909291016123dc8682612c9e565b5060028101805460018101825560009182526020909120016123fe8782612c9e565b5060098201805490600061241183612c36565b91905055507fc4f3ef40e8cf31adb37cfeddf4e080e505332c588893acb1c97e81c583bafd7987600184600901546124499190612dd4565b8860405161245993929190612e81565b60405180910390a160098201546040805189815260208101929092527f7087434e8d3e617b4d748be05dd310575f0aeaf40203852317b00a4fa4bbf7199101610e5a565b600080604083850312156124b057600080fd5b50508035926020909101359150565b6000815180845260005b818110156124e5576020818501810151868301820152016124c9565b506000602082860101526020601f19601f83011685010191505092915050565b602081526000610a3160208301846124bf565b634e487b7160e01b600052604160045260246000fd5b600082601f83011261253f57600080fd5b813567ffffffffffffffff8082111561255a5761255a612518565b604051601f8301601f19908116603f0116810190828211818310171561258257612582612518565b8160405283815286602085880101111561259b57600080fd5b836020870160208301376000602085830101528094505050505092915050565b60008060008060008060c087890312156125d457600080fd5b863567ffffffffffffffff808211156125ec57600080fd5b6125f88a838b0161252e565b9750602089013591508082111561260e57600080fd5b61261a8a838b0161252e565b9650604089013591508082111561263057600080fd5b61263c8a838b0161252e565b9550606089013591508082111561265257600080fd5b5061265f89828a0161252e565b9350506080870135915060a087013590509295509295509295565b80356001600160a01b038116811461269157600080fd5b919050565b600080604083850312156126a957600080fd5b6126b28361267a565b946020939093013593505050565b600080604083850312156126d357600080fd5b823591506126e36020840161267a565b90509250929050565b60008060006060848603121561270157600080fd5b8335925060208401359150604084013567ffffffffffffffff81111561272657600080fd5b6127328682870161252e565b9150509250925092565b60006020828403121561274e57600080fd5b610a318261267a565b60006020828403121561276957600080fd5b5035919050565b60006101808e835280602084015261278a8184018f6124bf565b9050828103604084015261279e818e6124bf565b905082810360608401526127b2818d6124bf565b6001600160a01b039b909b166080840152505060a081019790975294151560c087015260e086019390935261010085019190915261012084015261014083015261016090910152949350505050565b60006101608d835280602084015261281b8184018e6124bf565b9050828103604084015261282f818d6124bf565b90508281036060840152612843818c6124bf565b6001600160a01b039a909a166080840152505060a081019690965293151560c086015260e085019290925261010084015261012083015261014090910152949350505050565b6000806000806080858703121561289f57600080fd5b8435935060208501359250604085013567ffffffffffffffff808211156128c557600080fd5b6128d18883890161252e565b935060608701359150808211156128e757600080fd5b506128f48782880161252e565b91505092959194509250565b6000602080830181845280855180835260408601915060408160051b870101925083870160005b8281101561295557603f198886030184526129438583516124bf565b94509285019290850190600101612927565b5092979650505050505050565b8035801515811461269157600080fd5b600080600080600080600060e0888a03121561298d57600080fd5b87359650602088013567ffffffffffffffff808211156129ac57600080fd5b6129b88b838c0161252e565b975060408a01359150808211156129ce57600080fd5b6129da8b838c0161252e565b965060608a01359150808211156129f057600080fd5b6129fc8b838c0161252e565b955060808a0135915080821115612a1257600080fd5b50612a1f8a828b0161252e565b93505060a08801359150612a3560c08901612962565b905092959891949750929550565b600080600060608486031215612a5857600080fd5b83359250602084013567ffffffffffffffff80821115612a7757600080fd5b612a838783880161252e565b93506040860135915080821115612a9957600080fd5b506127328682870161252e565b60208082526015908201527410dbdd5c9cd948191bd95cc81b9bdd08195e1a5cdd605a1b604082015260600190565b60208082526022908201527f596f752068617665206e6f7420707572636861736564207468697320636f7572604082015261736560f01b606082015260800190565b6020808252601a908201527f4d6f64756c6520696e646578206f7574206f6620626f756e6473000000000000604082015260600190565b634e487b7160e01b600052603260045260246000fd5b600181811c90821680612b7857607f821691505b602082108103611bd457634e487b7160e01b600052602260045260246000fd5b60208082526023908201527f5468756d626e61696c204950465320686173682063616e6e6f7420626520656d60408201526270747960e81b606082015260800190565b60208082526025908201527f496e74726f20766964656f204950465320686173682063616e6e6f7420626520604082015264656d70747960d81b606082015260800190565b634e487b7160e01b600052601160045260246000fd5b600060018201612c4857612c48612c20565b5060010190565b601f821115612c9957600081815260208120601f850160051c81016020861015612c765750805b601f850160051c820191505b81811015612c9557828155600101612c82565b5050505b505050565b815167ffffffffffffffff811115612cb857612cb8612518565b612ccc81612cc68454612b64565b84612c4f565b602080601f831160018114612d015760008415612ce95750858301515b600019600386901b1c1916600185901b178555612c95565b600085815260208120601f198616915b82811015612d3057888601518255948401946001909101908401612d11565b5085821015612d4e5787850151600019600388901b60f8161c191681555b5050505050600190811b01905550565b848152608060208201526000612d7760808301866124bf565b6001600160a01b03949094166040830152506060015292915050565b60208082526021908201527f4f6e6c79206f776e65722063616e2063616c6c20746869732066756e6374696f6040820152603760f91b606082015260800190565b81810381811115610a3457610a34612c20565b8082028115828204841417610a3457610a34612c20565b600082612e1b57634e487b7160e01b600052601260045260246000fd5b500490565b600081612e2f57612e2f612c20565b506000190190565b6020808252602a908201527f4f6e6c7920636f757273652063726561746f722063616e206d6f64696679207460408201526968697320636f7572736560b01b606082015260800190565b838152826020820152606060408201526000612ea060608301846124bf565b95945050505050565b80820180821115610a3457610a34612c20565b848152608060208201526000612ed560808301866124bf565b6040830194909452509015156060909101529291505056fea2646970667358221220e84c6c308cc4a07e752c2c5bca99360901c85b64c3af66e8adb280808b9890b764736f6c63430008130033",
  "linkReferences": {},
  "deployedLinkReferences": {}
}